:020000040800F2
:1000000000000120C5020008CB020008CF02000852
:1000100041030008450300088D03000800000000AC
:10002000000000000000000000000000D5030008F0
:10003000D903000800000000DD030008350D0008AA
:10004000F1030008F1030008F1030008F1030008C0
:10005000F1030008F10300083913000859130008E0
:100060007913000899130008B9130008F103000878
:10007000F1030008F1030008F1030008F103000890
:10008000F1030008F1030008BD140008000000009F
:10009000000000000000000000000000D91300086C
:1000A000F1030008F1030008F1030008F103000860
:1000B000F1030008F1030008F1030008F103000850
:1000C000F1030008F1030008F1030008F103000840
:1000D000F1030008F1030008F1030008000000002C
:1000E000DB130008F1030008F10300080000000022
:1000F000000000000000000000000000F103000804
:1001000000000000F1030008F1030008F1030008FB
:1001100000000000000000000000000000000000DF
:10012000F1030008F1030008F1030008F1030008DF
:10013000F1030008000000000000000000000000C3
:10014000000000000000000000000000F1030008B3
:10015000F1030008F1030008F1030008F1030008AF
:10016000F1030008F1030008000000000000000097
:10017000000000000000000000000000000000007F
:1001800000000000F1030008000000000000000073
:10019000F103000800B583B000F0BAF9384B394AD2
:1001A0001360394A1360394900E02146384B9942BF
:1001B0000BD20A684B6801F10C0488689842F4D9A4
:1001C0001168196004330432F8E72E4B1A68314B7A
:1001D0009A4200D0FEE72C4B1A682F4B9A42F9D175
:1001E000274B2E4A13602E4A13602E4B05E0002049
:1001F000106004329342FAD80B462B4A934204D241
:10020000194651F8082B5B68F4E7244B1B6813B9B7
:10021000234B1B6803B1FEE701F0E3FA694601A82E
:1002200000F022F9214C224BE41AA4100025AC4224
:1002300014DC204C204BE41AA4100025AC4213DC43
:100240000099019801F0CEFA05461C4C1C4BE41AAB
:10025000A410002C0EDC284600F0E2F8144B53F8F2
:10026000253098470135E2E7134B53F8253098477E
:100270000135E3E7013C124B53F824309847E8E797
:10028000BABADECA000000207C000020F403000897
:100290000C040008785634123254769880000020FE
:1002A000800100200C0400081C0400081C04000845
:1002B0001C0400081C0400081C0400081C0400089E
:1002C0001C04000808B5FFF765FF00BEFEE71EF03E
:1002D000040F0CBFEFF30880EFF309807146414A29
:1002E00010472DE9F04182B004468846124B5E6B00
:1002F0009F6B9D6A1B6B13F0020F03D00E4BDB6AE2
:10030000002B0CDB0D4800F0B7F8CDF800803B4621
:1003100032462946204600F007F900BEFEE74BF6BC
:10032000AB6100F07BF90028ECD0034B4FF00042AA
:10033000DA6202B0BDE8F08100ED00E0842200083E
:1003400000BEFEE71EF0040F0CBFEFF30880EFF3D2
:1003500009807146244A10472DE9F04182B00446D5
:100360008846084B5E6B9F6B9D6A074800F084F8D7
:10037000CDF800803B4632462946204600F0D4F8AE
:1003800000BEFEE700ED00E0942200081EF0040F1E
:100390000CBFEFF30880EFF309807146134A104752
:1003A0002DE9F04182B004468846084B5E6B9F6B96
:1003B0009D6A074800F060F8CDF800803B46324661
:1003C0002946204600F0B0F800BEFEE700ED00E050
:1003D000A022000800BEFEE700BEFEE700BEFEE76A
:1003E00070470000E302000859030008A103000859
:0403F00000BEFEE766
:1003F40008230008000000208000002008230008D3
:100404000000001000000010800000208401002083
:080414000000001000000010C0
:10042000FEE7000008B503460C4A12685AB10B4AB1
:100430001068033323F003030344094A934206D8A8
:10044000064A136008BD054A06491160EFE701F04E
:1004500017FA0C2303604FF0FF30F3E7840000200D
:1004600000FC00208401002001230360014B0B608D
:10047000704700BF040000200FB400B583B004AB88
:1004800053F8042B01938021064801F02BFA002831
:1004900003DD0146034800F037F803B05DF804EBD4
:1004A00004B070478C0000202DE9F04385B004466D
:1004B0000F4643560BB10E461EE004252846214642
:1004C000ABBE0446384605B0BDE8F08314F9011B05
:1004D00004AA1A4402F8101C0133AB42F6D304AA52
:1004E0001344002203F8102C4FF00408E94640465C
:1004F0004946ABBE8046761B002EE3D03546102E13
:1005000028BF10250023E8E708B5FFF7CDFF08BD99
:1005100008B500F093F8024A024B9A6008BD00BF8C
:100520000000000800ED00E0F8B504460D4617464F
:100530001E462748FFF7A0FF21682648FFF79CFFCB
:1005400061682548FFF798FFA1682448FFF794FFEA
:10055000E1682348FFF790FF21692248FFF78CFFED
:1005600061692148FFF788FFA1692048FFF784FFF0
:10057000E1691F48FFF780FF1E48FFF77DFF29460E
:100580001D48FFF779FF1D4CE16A1D48FFF774FF16
:10059000216B1C48FFF770FFE16B1B48FFF76CFFF6
:1005A00015F0800F0AD115F4004F0CD11748FFF752
:1005B00063FF06991648FFF75FFFF8BD39461548F7
:1005C000FFF75AFFEFE731461348FFF755FFEDE716
:1005D0006821000878210008882100089821000877
:1005E000A8210008B8210008C8210008D821000867
:1005F000E8210008F82100080422000800ED00E0CE
:100600001422000824220008342200086422000872
:100610006C220008442200085422000883691A88CA
:100620008A4201D0002070470268033A012A03D8A9
:100630000233836101207047002070470C4B1A6819
:1006400042F001021A60002199601A6822F0847257
:1006500022F480321A60074A5A601A6822F4802213
:100660001A60D960044B4FF000629A60704700BF77
:10067000003802401030002400ED00E0014BD86348
:10068000704700BF0000014070B582B00446BDF85D
:100690001C608E48056845F080050560056825F0FA
:1006A00010050560456825F010054560456825F092
:1006B00020054560456845F040054560856845F082
:1006C000800585608362BDF81830C362631E032B0A
:1006D00005D8DFE803F0020B0E117C4B5E63631E4E
:1006E000032B19D8DFE803F00B212F3D774B9E63D6
:1006F000F5E7764BDE63F2E7744B1E64EFE7734B6E
:10070000986920F001009861986920F002009861D2
:10071000986940F008009861631E032B45D8DFE814
:1007200013F02E00B0002B01A501684B986920F44E
:1007300080709861986920F400709861986940F41D
:1007400000609861E8E7614BD86920F00100D8614A
:10075000D86920F00200D861D86940F00800D8615B
:10076000DAE75A4BD86920F48070D861D86920F450
:100770000070D861D86940F40060D861CCE70139D5
:10078000072912D8DFE801F0041B29374553616FB0
:100790004E4B996921F010019961996921F020016E
:1007A0009961996921F040019961013A032A00F2A7
:1007B000E281DFE812F0D701080212021C02434B6B
:1007C000996941F010019961996921F020019961BD
:1007D000996921F040019961E7E73C4B996921F063
:1007E00010019961996941F020019961996921F09D
:1007F00040019961D9E7354B996941F01001996140
:10080000996941F020019961996921F0400199614C
:10081000CBE72E4B996921F010019961996921F07C
:1008200020019961996941F040019961BDE7274B29
:10083000996941F010019961996921F0200199614C
:10084000996941F040019961AFE7204B996921F026
:1008500010019961996941F020019961996941F00C
:1008600040019961A1E7194B996941F01001996123
:10087000996941F020019961996941F040019961BC
:1008800093E70139072990D8DFE801F004122230FC
:100890003E4C5A680D4B996921F4805199619969D0
:1008A00021F400519961996921F4804199617CE7B3
:1008B000064B996941F480519961996921F400517D
:1008C0009961996921F4804199616EE700000140C6
:1008D000954B996921F480519961996941F40051CE
:1008E0009961996921F4804199615EE78E4B99691C
:1008F00041F480519961996941F400519961996974
:1009000021F48041996150E7874B996921F4805126
:100910009961996921F400519961996941F4804183
:10092000996142E7804B996941F4805199619969D5
:1009300021F400519961996941F48041996134E74A
:10094000794B996921F480519961996941F4005179
:100950009961996941F48041996126E7724B9969DF
:1009600041F480519961996941F400519961996903
:1009700041F48041996118E7013907293FF615AF25
:10098000DFE801F00412202E3C4A5866664BD96914
:1009900021F01001D961D96921F02001D961D9690B
:1009A00021F04001D96100E75F4BD96941F01001A6
:1009B000D961D96921F02001D961D96921F04001BB
:1009C000D961F2E6584BD96921F01001D961D96992
:1009D00041F02001D961D96921F04001D961E4E6F3
:1009E000514BD96941F01001D961D96941F0200119
:1009F000D961D96921F04001D961D6E64A4BD9695C
:100A000021F01001D961D96921F02001D961D9699A
:100A100041F04001D961C8E6434BD96941F010016A
:100A2000D961D96921F02001D961D96941F040012A
:100A3000D961BAE63C4BD96921F01001D961D96975
:100A400041F02001D961D96941F04001D961ACE69A
:100A5000354BD96941F01001D961D96941F02001C4
:100A6000D961D96941F04001D9619EE60139072970
:100A70003FF69BAEDFE801F00412202E3C4A5A6894
:100A8000294BD96921F48051D961D96921F40051E8
:100A9000D961D96921F48041D96186E6224BD969AF
:100AA00041F48051D961D96921F40051D961D969E2
:100AB00021F48041D96178E61B4BD96921F480513A
:100AC000D961D96941F40051D961D96921F48041D2
:100AD000D9616AE6144BD96941F48051D961D96969
:100AE00041F40051D961D96921F48041D9615CE6B2
:100AF0000D4BD96921F48051D961D96921F4005194
:100B0000D961D96941F48041D9614EE6064BD96972
:100B100041F48051D961D96921F40051D961D96971
:100B200041F48041D96140E600000140614BD96940
:100B300021F48051D961D96941F40051D961D96951
:100B400041F48041D96130E65A4BD96941F4805172
:100B5000D961D96941F40051D961D96941F4804121
:100B6000D96122E6534B1A6822F020021A601A68F3
:100B700022F040021A604F4A536943F00103536167
:100B8000012C3ED04B4A136A23F001031362022C5E
:100B90004DD0484A136A23F010031362032C5CD033
:100BA000444A136A23F480731362042C6BD0414AC5
:100BB000136A23F4805313623E4A536C43F4004398
:100BC000536402B070BD3B4B1A6842F020021A60B9
:100BD0001A6822F040021A60CDE7364B1A6822F0FC
:100BE00020021A601A6842F040021A60C3E7314BD3
:100BF0001A6842F020021A601A6842F040021A6035
:100C0000B9E71346126A22F002021A621A6A42F027
:100C100001021A62284B93E803000090ADF804101B
:100C2000090C8DF80610684600F04CFBAFE7214B2D
:100C30001A6A22F020021A621A6A42F010021A623C
:100C40001E4B93E803000090ADF80410090C8DF8DA
:100C50000610684600F036FBA0E7164B1A6A22F42D
:100C600000721A621A6A42F480721A62144B93E894
:100C700003000090ADF80410090C8DF806106846CA
:100C800000F020FB91E70B4B1A6A22F400521A6223
:100C90001A6A42F480521A620A4B93E803000090E9
:100CA000ADF80410090C8DF80610684600F00AFB38
:100CB00082E700BF00000140B0220008B82200080F
:100CC000C0220008C8220008024A136843F001034A
:100CD0001360704700000140054B00229A601A68BB
:100CE00022F004021A601A6822F002021A607047A9
:100CF00010E000E04FF47A7303FB00F00138B0F12C
:100D0000807F14D20A4B586000229A601A6842F021
:100D100001021A60064B1B6813F4803FFAD0044BA3
:100D20001A6822F001021A6000225A609A60704725
:100D300010E000E000B583B000238DF80730104BC1
:100D40001B6803B198470F4B1B78012B08D00E4B43
:100D50001B68C3F300438DF8073003B05DF804FB54
:100D6000094B1A6822F002021A601A6822F0010286
:100D70001A6000225A609A60024B02221A70E6E75B
:100D8000100100200C01002010E000E03C4B1A682C
:100D900022F080621A601A6822F080721A601A6863
:100DA00022F400221A601A6822F480221A609A68DB
:100DB00022F001029A609A6822F002029A609A6810
:100DC00022F004029A609A6822F008029A609A68F7
:100DD00022F080429A609A6822F000429A609A68F3
:100DE00022F000629A609A6822F080529A609A68B3
:100DF00022F000529A609A6822F400129A609A686F
:100E000042F480029A609A6822F080729A609A682E
:100E100022F000729A609A6822F080629A609A6862
:100E200022F010029A609A6822F020029A609A6872
:100E300022F040029A609A6842F080029A609A68B2
:100E400022F480629A609A6822F400629A609A683A
:100E500022F480529A609A6822F400529A609A684A
:100E600022F480429A609A6822F400429A601A68DA
:100E700022F480321A601A6842F001021A60704748
:100E800000380240013804282BD8DFE800F0030BBB
:100E9000131B23001348036B012202FA01F11943CB
:100EA000016370470F48436B012202FA01F11943B5
:100EB000416370470B48036C012202FA01F11943A8
:100EC000016470470748436C012202FA01F119439B
:100ED000416470470348036D012202FA01F119438E
:100EE000016570470038024082B0002201924FF441
:100EF000F033019301990C4BD9614FF46041D961F2
:100F00000199D961DB6901930092084B0093009A23
:100F1000074BDA6140F61C02DA61009ADA61DB699C
:100F2000009302B0704700BF000002401C0801009F
:100F30000004024010B4012812D018B102281DD0BC
:100F400010BC7047144B1868490003248C4020EAF9
:100F500004001860186802FA01F101431960EFE714
:100F60000E4B1868490003248C4020EA04001860E6
:100F7000186802FA01F101431960E1E7084B1868AB
:100F8000490003248C4020EA04001860186802FA23
:100F900001F101431960D3E7000002400004024060
:100FA00000080240012A02D0022A1ED07047012800
:100FB0000BD010B1022810D070471C4843680122A2
:100FC00002FA01F119434160704719484368012250
:100FD00002FA01F119434160704716484368012243
:100FE00002FA01F119434160704701280CD010B199
:100FF000022812D070470D484368012202FA01F11D
:1010000023EA01014160704709484368012202FA5E
:1010100001F123EA0101416070470648436801225B
:1010200002FA01F123EA0101416070470000024029
:10103000000402400008024010B4012812D018B188
:1010400002281DD010BC7047144B98684900032437
:101050008C4020EA04009860986802FA01F101438C
:101060009960EFE70E4B9868490003248C4020EA12
:1010700004009860986802FA01F101439960E1E781
:10108000084B9868490003248C4020EA04009860CB
:10109000986802FA01F101439960D3E70000024029
:1010A000000402400008024010B4012812D018B118
:1010B00002281DD010BC7047144BD8684900032487
:1010C0008C4020EA0400D860D86802FA01F101439C
:1010D000D960EFE70E4BD868490003248C4020EA22
:1010E0000400D860D86802FA01F10143D960E1E751
:1010F000084BD868490003248C4020EA0400D860DB
:10110000D86802FA01F10143D960D3E70000024038
:101110000004024000080240012A02D0022A1ED028
:10112000704701280BD010B1022810D070471C481E
:101130004369012202FA01F11943416170471948DC
:101140004369012202FA01F11943416170471648CF
:101150004369012202FA01F11943416170470128F4
:101160000CD010B1022812D070470D4843690122FB
:1011700002FA01F123EA010141617047094843691C
:10118000012202FA01F123EA010141617047064898
:101190004369012202FA01F123EA0101416170472A
:1011A00000000240000402400008024030B4012860
:1011B0002ED018B1022855D030BC70470F29FBD86B
:1011C000DFE801F0080808080808080816161616CF
:1011D00016161616384C236A89000F20884023EA19
:1011E00000032362236A02FA01F119432162E3E753
:1011F000314C636AA1F1080080000F21814023EA8D
:1012000001036362636A02FA00F119436162D3E782
:101210000F29D1D8DFE801F00808080808080808F5
:101220001616161616161616244C236A89000F2059
:10123000884023EA00032362236A02FA01F119437A
:101240002162B9E71D48446AA1F108039B000F2100
:10125000994024EA01014162416A02FA03F30B4317
:101260004362A9E70F29A7D8DFE801F008080808BA
:10127000080808081616161616161616104C236AB5
:101280008D000F21A94023EA01032362236A02FA99
:1012900005F1194321628FE7094C636A0839890017
:1012A0000F20884023EA00036362636A02FA01F1B7
:1012B0001943616280E700BF000002400004024061
:1012C0000008024010B50446827841780078FFF7A4
:1012D00031FEE27861782078FFF764FE2279617848
:1012E0002078FFF7A9FE627961782078FFF7DCFEAD
:1012F000A27961782078FFF759FF10BD01280AD044
:1013000010B102280FD07047084A536903F46043B4
:10131000194351617047064A536903F01C0319438E
:10132000490151617047034B5B69704700000240FF
:10133000000402400008024008B5054B1B6803B1D9
:101340009847044A536943F00103536108BD00BF45
:1013500014010020003C014008B5054B5B6803B157
:101360009847044A536943F00203536108BD00BF24
:1013700014010020003C014008B5054B9B6803B1F7
:101380009847044A536943F00403536108BD00BF02
:1013900014010020003C014008B5054BDB6803B197
:1013A0009847044A536943F00803536108BD00BFDE
:1013B00014010020003C014008B5054B1B6903B136
:1013C0009847044A536943F01003536108BD00BFB6
:1013D00014010020003C01407047704708B5082107
:1013E0000420FFF74FFD274B9A6842F001029A60F4
:1013F0001A6D22F480321A651A6D22F480321A6551
:101400005A6822F080725A605A6822F000725A605C
:101410009A6822F400629A605A6822F080025A6048
:101420005A6822F020025A605A6822F080625A609C
:10143000DA6A22F48012DA62DA6A22F40012DA62DC
:10144000DA6A22F48002DA62DA6A22F40002DA62EC
:101450005A6822F480725A605A6822F400625A6014
:101460005A6822F400525A605A6822F480425A6044
:101470005A6822F400425A609A6842F002029A6066
:1014800008BD00BF002001400B4A536B23F01F032F
:1014900018435063936843F080439360064B1B6886
:1014A00013F0020FFAD0044B1A6822F002021A60FD
:1014B000D86C80B2704700BF0020014008B5074BD0
:1014C0001B6803B19847064B1A6822F002021A60A3
:1014D0001A6822F004021A6008BD00BF70010020E3
:1014E0000020014008B50348FFF7ECFEFFF776FF48
:1014F00008BD00BF1000002008B5024B1878FFF7A8
:10150000C3FF08BD0C00002010B5044602220C21C8
:101510000120FFF701FE02220D210120FFF7FCFD53
:101520000120FFF7E7FB21460020FFF7E7FE01203F
:10153000FFF7E0FB01220E211046FFF7EDFD012031
:10154000FFF7D8FB02220E210120FFF7E5FD012065
:10155000FFF7D0FB10BDF0B597B0FFF7BDFB4FF420
:101560007A70FFF7C7FB0023ADF854308DF8563082
:1015700001248DF850400C278DF851708DF85240A1
:1015800002228DF85320ADF84C308DF84E308DF896
:1015900048400D218DF849108DF84A408DF84B20B8
:1015A000ADF844308DF846308DF840400E218DF86E
:1015B00041108DF842408DF843200E93CDF83B301A
:1015C0008DF83A408DF83B200C93CDF833308DF8F0
:1015D00031408DF832408DF833200A93CDF82B300E
:1015E0008DF829208DF82A408DF82B200893CDF80E
:1015F000233003268DF821608DF822408DF82320BA
:101600000693CDF81B3004218DF819108DF81A407F
:101610008DF81B200493CDF8133005218DF811109F
:101620008DF812408DF813200293CDF80B3006256B
:101630008DF809508DF80A408DF80B200093CDF8F5
:10164000033007238DF801308DF802408DF8032018
:1016500014A8FFF737FE12A8FFF734FE10A8FFF713
:1016600031FE0EA8FFF72EFE0CA8FFF72BFE0AA8EE
:10167000FFF728FE08A8FFF725FE06A8FFF722FEC1
:1016800004A8FFF71FFE02A8FFF71CFE6846FFF73D
:1016900019FE3220FFF72EFB3820FFF735FF2046DA
:1016A000FFF728FB3846FFF72FFF2046FFF722FB06
:1016B0002046FFF729FF3046FFF71CFB2846FFF7BF
:1016C00023FF2046FFF716FB17B0F0BD10B5044608
:1016D00001220C211046FFF71FFD02220D210120DF
:1016E000FFF71AFD0120FFF705FB21460020FFF759
:1016F00005FE0120FFF7FEFA01220E211046FFF73A
:101700000BFD0120FFF7F6FA02220E210120FFF760
:1017100003FD0120FFF7EEFA10BD38B505460024A1
:1017200004E0C0B2FFF7D2FF0134E4B2285700282A
:10173000F7D138BD30B585B0002301930293ADF8E1
:101740000C30051E02DB35B100241AE02D20FFF716
:10175000BDFF6D42F7E73020FFF7B8FFF4E7124A0C
:1017600082FB0532EB17C3EBA203194603EB83039D
:101770005A00AB1A04AA224402F80C3C0D4601346C
:10178000E4B2002DEBD1013C64B209E004AB234488
:1017900013F80C0C3030C0B2FFF798FF013C64B274
:1017A000002CF3DA05B030BD67666666012800D903
:1017B00070470F29FCD808B510B1012805D008BD25
:1017C00081F08000FFF7A0FEF9E74039C8B2FFF7CB
:1017D0009BFEF4E708B5FFF7E9FF2020FFF776FF4F
:1017E00008BD704710B582B0FFF7D0FA0121084656
:1017F000FFF748FB00210120FFF744FB00210420F4
:10180000FFF740FBFFF770FBFFF766FA0023019339
:101810004FF47A6300930723022219460320FEF750
:1018200033FFFFF751FAFFF796FEFFF75BFE134811
:10183000FFF773FFFFF760FE044603210020FFF768
:10184000B5FF2046FFF776FF2046FEF717FF012081
:10185000FFF750FA03210020FFF7BCFF042100200E
:10186000FFF7B8FF05210020FFF7B4FF0621002095
:10187000FFF7B0FF0120FFF73DFADBE7D0220008B9
:10188000014B1868704700BF1800002030B5141EC7
:1018900005469BB0184605DA8B232B604FF0FF30CE
:1018A0001BB030BD4FF40273ADF80C3014BF04F11F
:1018B000FF332346029305934FF6FF730091049183
:1018C000ADF80E3002461E9B6946284600F072F8BD
:1018D000431CBCBF8B232B60002CE1D0009B00225B
:1018E0001A70DDE707B5009313460A460146034820
:1018F0000068FFF7CBFF03B05DF804FB1800002081
:101900002DE9F0478E689E4282460C4690469946E5
:1019100037D88A8912F4906F31D0256809696F1A17
:101920006569022305EB450595FBF3F509F1010314
:101930003B449D4238BF1D46530530D5294600F033
:1019400079FB064650B90C23CAF80030A38943F04E
:101950004003A3814FF0FF30BDE8F0873A4621698C
:1019600000F0F6FAA38923F4906343F08003A38187
:10197000266165613E44ED1B2660A5604E464E45DE
:1019800000D94E4632464146206800F0ECFAA36882
:101990009B1BA36023681E4426600020DCE72A46C8
:1019A00000F0A2FB06460028E2D12169504600F073
:1019B000F3FAC8E72DE9F04F9DB0804603938B8979
:1019C0001D060C4616460FD50B696BB9402100F079
:1019D00031FB2060206128B90C23C8F800304FF09B
:1019E000FF30C7E0402363610023099320238DF873
:1019F000293030238DF82A304FF0010B37463D4611
:101A000015F8013B0BB1252B3ED1B7EB060A0BD0E5
:101A10005346324621464046FFF772FF013000F040
:101A2000A480099B534409933B78002B00F09D80D0
:101A300000234FF0FF32CDE90523049307938DF87F
:101A400053301A932F46052217F8011B4F4800F018
:101A50002FFA049BD0B9D90644BF20228DF8532019
:101A60001A0744BF2B228DF853202A782A2A15D032
:101A7000079A2F4600200A25394611F8013B303BD2
:101A8000092B4DD9B8B10FE02F46B8E73F4A801A6D
:101A90000BFA00F0184304903D46D3E7039A111D5A
:101AA00012680391002A01DB079204E0524243F0DE
:101AB0000203079204933B782E2B0CD17B782A2BC0
:101AC00033D1039B1A1D1B680392002BB8BF4FF044
:101AD000FF33023705932E4D39780322284600F054
:101AE000E7F938B14023401B03FA00F0049B03439D
:101AF00001370493397827488DF8281006227E1C78
:101B000000F0D6F9002838D0234B13BB039B0733D2
:101B100023F0070308330393099B4B4409936DE7B4
:101B200005FB023201200F46A6E70023013705938B
:101B300019460A25384610F8012B303A092A03D9EC
:101B4000002BC8D00591C6E705FB012101230746FC
:101B5000F0E703AB00932246104B04A94046AFF3D5
:101B60000080B0F1FF3F8146D6D1A3895B063FF5E7
:101B700036AF09981DB0BDE8F08F03AB0093224645
:101B8000064B04A9404600F081F8EAE7D422000899
:101B9000DA220008DE220008000000000119000817
:101BA0002DE9F04791461F468A680B69DDF82080D1
:101BB0009342B8BF1346C9F8003091F84320064657
:101BC0000C4612B10133C9F800302368990642BFB0
:101BD000D9F800300233C9F80030256815F0060541
:101BE00007D104F1190AE368D9F800209B1AAB4227
:101BF00028DC94F843302268003318BF0123920692
:101C00002DD404F1430239463046C047013020D07C
:101C10002368E568D9F8002003F00603042B08BF09
:101C2000AD1AA36822690CBF25EAE5750025934229
:101C3000C4BF9B1AED184FF000091A344D451AD154
:101C4000002008E00123524639463046C0470130A3
:101C500003D14FF0FF30BDE8F0870135C3E7E1184D
:101C60005A1C302081F84300224494F8451082F831
:101C700043100233C5E70123224639463046C047A8
:101C80000130E6D009F10109D8E700002DE9F04361
:101C900001F1430C0C46097E85B06E2917460646B5
:101CA00098460C9A00F0B38022D8632936D00AD81F
:101CB000002900F0B980582900F0838004F1420522
:101CC00084F8421032E0642901D06929F6D12068F5
:101CD0001368050603F104012AD51B681160002B67
:101CE00003DA2D225B4284F843206F480A2239E050
:101CF000732900F09D8008D86F2920D07029DDD18C
:101D0000236843F02003236003E0752917D0782966
:101D1000D4D1782384F84530644855E01368191D00
:101D20001B68116004F1420584F8423001238CE005
:101D30001B68116010F0400F18BF1BB2CFE713688B
:101D40002568181D1060280601D51B6802E068068A
:101D5000FBD51B8854486F2914BF0A220822002192
:101D600084F843106568A560002DC0F29580216855
:101D700021F004012160002B3DD1002D40F08E8028
:101D80006546082A0BD12368DB0708D523696268FA
:101D90009A42DEBF302305F8013C05F1FF35ACEB7C
:101DA00005032361CDF800803B4603AA2146304657
:101DB000FFF7F6FE01304DD14FF0FF3005B0BDE822
:101DC000F083394884F84510136821681D1D1B688D
:101DD00015600A060BD5CA0744BF41F020012160F7
:101DE0001BB9226822F0200222601022B7E74D06BC
:101DF00048BF9BB2EFE76546B3FBF2F102FB11333C
:101E0000C35C05F8013D0B460029F5D1B9E713681D
:101E100025686169181D106028061B6801D51960C6
:101E200002E06A06FBD51980002323616546B9E705
:101E30001368191D11601D6862680021284600F0B2
:101E400037F808B1401B606063682361002384F8A1
:101E50004330A7E723692A4639463046C047013058
:101E6000AAD023689B0713D4E068039B9842B8BFAD
:101E70001846A3E701234A4639463046C047013099
:101E80009AD00135E368039A9B1AAB42F2DCEBE788
:101E9000002504F11909F5E7002BACD1037884F88B
:101EA000423004F142056CE7E5220008F622000802
:101EB00001F0FF01102A2BDB10F0070F08D010F8FB
:101EC000013B013A8B422DD010F0070F42B3F6D1FF
:101ED000F0B441EA012141EA014122F007047FF018
:101EE00000070023F0E80256083C85EA010586EA6F
:101EF000010685FA47F5A3FA87F586FA47F6A5FAAB
:101F000087F68EB9EED1F0BC01F0FF0102F00702B6
:101F100032B110F8013B013A83EA010313B1F8D161
:101F20000020704701387047002D06BF3546033842
:101F3000073815F0010F07D1013015F4807F02BF7B
:101F4000013015F4C03F0130F0BC0138704700BFCC
:101F500010B5431E0A44914200D110BD11F8014B47
:101F600003F8014FF7E7884210B501EB020307D8E9
:101F7000421E99420AD011F8014B02F8014FF8E7CE
:101F80008342F5D98118D21AD34200D110BD13F87B
:101F9000014D01F8014DF7E738B50546002945D058
:101FA00051F8043C0C1F002BB8BFE41800F0D2F825
:101FB0001F4A1368104633B9636014602846BDE8B1
:101FC000384000F0C8B8A3420CD921686218934287
:101FD00004BF1A685B68636004BF52182260046023
:101FE000ECE713465A680AB1A242FAD919685818A0
:101FF000A0420BD120680144581882421960DDD1FB
:10200000106852685A6001441960D7E702D90C235E
:102010002B60D3E7206821188A4204BF11685268F8
:10202000626004BF091821605C60C7E738BD00BF6B
:102030007401002070B5CD1C25F0030508350C2D6A
:1020400038BF0C25002D064601DBA94203D90C231D
:102050003360002070BD00F07DF8214A14682146ED
:1020600091B9204C23681BB9304600F063F820601A
:102070002946304600F05EF8431C24D10C2333601F
:10208000304600F068F8E4E70B685B1B18D40B2BB4
:102090000FD90B60CD50CC18304600F05CF804F13D
:1020A0000B00231D20F00700C31AD3D05A42E25080
:1020B000D0E78C424B6816BF636013600C46EBE7B9
:1020C0000C464968CCE7C41C24F00304A04205D0A8
:1020D000211A304600F02EF80130CFD02560DBE722
:1020E0007401002078010020F8B5074614460E461A
:1020F00021B91146BDE8F840FFF79CBF22B9FFF7B0
:102100004BFF25462846F8BD00F026F8A0420FD226
:1021100021463846FFF78EFF05460028F2D03146AB
:102120002246FFF715FF31463846FFF735FFE9E74E
:102130003546E7E738B5064C0023054608462360D8
:10214000FEF770F9431C02D1236803B12B6038BD40
:102150007C0100207047704751F8043C181F002B89
:10216000BCBF0B58C0187047537461636B20667214
:10217000616D653A0A000000205230203D20202584
:102180003038580A00000000205231203D20202520
:102190003038580A00000000205232203D2020250F
:1021A0003038580A00000000205233203D202025FE
:1021B0003038580A0000000020523132203D2025DE
:1021C0003038580A00000000204C52203D202025C5
:1021D0003038580A00000000205043203D202025C0
:1021E0003038580A0000000020505352203D20256E
:1021F0003038580A000000004653522F4641523AE8
:102200000A0000002043465352203D20202530384C
:10221000580A00002048465352203D2020253038DF
:10222000580A00002044465352203D2020253038D3
:10223000580A00002041465352203D2020253038C6
:10224000580A0000204D4D464152203D202530388F
:10225000580A00002042464152203D2020253038B7
:10226000580A00004D6973630A000000204C522F89
:102270004558435F52455455524E3D2025303858FD
:102280000A0000005B486172644661756C745D0A07
:10229000000000005B4275734661756C745D0A0056
:1022A0005B55736167654661756C745D0A0000007B
:1022B0000008020200000100000902020000010003
:1022C000000A020200000100000B020200000100EF
:1022D000446F3A00232D302B2000686C4C0065665B
:1022E0006745464700303132333435363738394167
:1022F000424344454600303132333435363738397D
:072300006162636465660081
:1023080078563412880000200000000008FFFFFF04
:1023180001000300000000FF1C0000200000000076
:1023280000000000000000000000000000000000A5
:102338000000000000000000000000000000000095
:102348000000000000000000000000000000000085
:102358000000000000000000000000000000000075
:102368000000000000000000000000000000000065
:1023780000000000000000000000000032547698C1
:040000050800019559
:00000001FF
