:020000040800F2
:100000000000012061020008650200086702000884
:100010007D0200087F020008950200080000000031
:10002000000000000000000000000000AB0200081B
:10003000AD02000800000000AF02000869080008D7
:10004000C5020008C5020008C5020008C502000874
:10005000C5020008C5020008550D0008750D00080E
:10006000950D0008B50D0008D50D0008C502000863
:10007000C5020008C5020008C5020008C502000844
:10008000C5020008C5020008D10E000800000000EB
:10009000000000000000000000000000F50D000856
:1000A000C5020008C5020008C5020008C502000814
:1000B000C5020008C5020008C5020008C502000804
:1000C000C5020008C5020008C5020008C5020008F4
:1000D000C5020008C5020008C502000800000000B3
:1000E000F70D0008C5020008C50200080000000066
:1000F000000000000000000000000000C502000831
:1001000000000000C5020008C5020008C502000882
:1001100000000000000000000000000000000000DF
:10012000C5020008C5020008C5020008C502000893
:10013000C5020008000000000000000000000000F0
:10014000000000000000000000000000C5020008E0
:10015000C5020008C5020008C5020008C502000863
:10016000C5020008C50200080000000000000000F1
:10017000000000000000000000000000000000007F
:1001800000000000C50200080000000000000000A0
:10019000C502000807B500F0B7F8274B274883428F
:1001A00026D3274B274900208B422DD300F0FDFF9B
:1001B000254E264C01A9684600F09EF8A41BA41009
:1001C0000025AC4229DC224E224CA41BA4100025A1
:1001D000AC4227DCDDE9000100F0E8FF1E4D1F4CBA
:1001E000641B0646A410002C21DC304600F080F889
:1001F000D3E900120C3353F8044C891A9442CED937
:10020000555815600432F9E753F8082B53F8044C9D
:100210009442C9D910600432FAE756F8253098475D
:100220000135CEE756F8253098470135D0E7013C37
:1002300055F824309847D6E7C8020008E0020008C5
:10024000E0020008F0020008F0020008F0020008D6
:10025000F0020008F0020008F0020008F0020008B6
:1002600014480047FEE71EF0040F0CBFEFF30880B0
:10027000EFF309807146104A1047FEE7FEE71EF0D3
:10028000040F0CBFEFF30880EFF3098071460B4AAF
:100290001047FEE71EF0040F0CBFEFF30880EFF3EA
:1002A00009807146064A1047FEE7FEE7FEE7FEE7D3
:1002B00070470000950100087B02000893020008C7
:0602C000A9020008FEE7A0
:1002C80068120008000000201000002068120008D2
:1002D800000000100000001010000020780000202E
:0802E8000000001000000010EE
:1002F00008B500F015F8000001230360014B0B6006
:10030000704700BF0000002008B500F01BF8024B4A
:10031000024A9A6008BD00BF00ED00E0000000083E
:10032000BFF34F8F0549064BCA6802F4E0621343DE
:10033000CB60BFF34F8F00BFFDE700BF00ED00E0D3
:100340000400FA050C4B1A68002142F001021A6001
:1003500099601A6822F0847222F480321A60074A87
:100360005A601A6822F480221A60D960044B4FF058
:1003700000629A60704700BF0038024010300024CD
:1003800000ED00E0014BD863704700BF0000014062
:1003900073B504469748BDF81C50066846F08006C1
:1003A0000660066826F010060660466826F010060D
:1003B0004660466826F020064660466846F04006DD
:1003C0004660866846F0800686608362661EBDF8D9
:1003D0001830C362013A0346032E00F26181DFE860
:1003E00006F0021A324E5D63986920F001009861B0
:1003F000986920F0020098619869013940F008007E
:1004000098617C4B072900F24B81DFE801F05469C9
:100410006D75798589919D63986920F480709861E4
:10042000986920F4007098619869013940F400607F
:100430009861704B072900F23381DFE801F07D926B
:10044000969EA2AEB2BADD63D86920F00100D861F1
:10045000D86920F00200D861D869013940F008005D
:10046000D861644B072900F21B81DFE811F0A60078
:10047000B300B700BF00C500D100D500DD001D648A
:10048000D86920F48070D861D86920F40070D861F0
:10049000D869013940F40060D861564B072900F251
:1004A000FF80DFE811F0C500D100D500DD00E100DC
:1004B000ED00F100F900996921F010019961996945
:1004C00021F020019961996921F040019961032A85
:1004D00000F24581DFE812F0EA00300135013E010B
:1004E000996941F01001E9E7996921F010019961DA
:1004F000996941F02001E5E7996941F01001F6E7BB
:10050000996921F010019961996921F0200199619F
:10051000996941F04001D9E7996941F01001F2E78A
:10052000996921F010019961996941F02001EEE784
:10053000996941F01001F6E7996921F480519961B8
:10054000996921F400519961996921F48041996177
:10055000032A00F20A81DFE812F0A900EF00F4009C
:10056000FD00996941F48051E9E7996921F48051CE
:100570009961996941F40051E5E7996941F4805125
:10058000F6E7996921F480519961996921F4005144
:100590009961996941F48041D9E7996941F48051A1
:1005A000F2E7996921F480519961996941F4005108
:1005B000EEE7996941F48051F6E7D96921F010011D
:1005C000D961D96921F02001D961D96921F04001AF
:1005D000D961BDE7D96941F01001F1E7D96921F08E
:1005E0001001D961D96941F02001EDE7D96941F0E5
:1005F0001001F6E700000140D96921F01001D9612E
:10060000D96921F02001D961D96941F04001DFE7C2
:10061000D96941F01001F2E7D96921F01001D961DF
:10062000D96941F02001EEE7D96941F01001F6E700
:10063000D96921F48051D961D96921F40051D96176
:10064000D96921F48041C3E7D96941F48051F2E7C7
:10065000D96921F48051D961D96941F40051EEE79B
:10066000D96941F48051F6E7D96921F48051D96103
:10067000D96921F40051D961D96941F48041A7E7D2
:10068000D96941F48051F2E7D96921F48051D961E7
:10069000D96941F40051EEE7D96941F48051F6E798
:1006A000032A0CD8DFE802F002484D56504B1A6876
:1006B00022F020021A601A6822F040021A604C4AA6
:1006C0005369012C43F00103536153D1484B1A6A1B
:1006D00022F002021A621A6A42F001021A62454BC3
:1006E00018689A8800909B79ADF8042068468DF8C8
:1006F000063000F0F3FA3E4B1A6A032C22F0100287
:100700001A6252D11A6A22F400721A621A6A42F408
:1007100080721A62384B18689A8800909B79ADF8FD
:10072000042068468DF8063000F0D8FA304A136A83
:1007300023F48053136253E02D4B1A6842F02002D9
:10074000B8E72B4B1A6822F020021A601A6842F0B0
:100750004002B3E7264B1A6842F02002F5E7244A2C
:10076000536943F001035361B0E7214A536943F0F1
:10077000010353611E4B1A6A022C22F001021A6215
:10078000B9D11A6A22F020021A621A6A42F01002E3
:100790001A621A4B18689A8800909B79ADF8042069
:1007A00068468DF8063000F099FA114B1A6A042C4D
:1007B00022F480721A62B9D11A6A22F400521A62C3
:1007C0001A6A42F480521A620D4B18689A88009097
:1007D0009B79ADF8042068468DF8063000F07EFA6B
:1007E000034A536C43F40043536402B070BD00BF2E
:1007F0000000014048120008561200084F1200087D
:100800005D120008024A136843F001031360704749
:1008100000000140054B00229A601A6822F0040291
:100820001A601A6822F002021A60704710E000E0B5
:100830004FF47A7358430138B0F1807F11D2094BDD
:10084000002258609A601A6842F001021A601A6821
:10085000D203FCD51A6822F001021A6000225A6005
:100860009A60704710E000E007B500238DF807306C
:100870000F4B1B6803B198470E490B78012B0DD124
:100880000D4B1A6822F002021A601A6822F0010267
:100890001A6000225A609A6002230B70064B1B6894
:1008A000C3F300438DF8073003B05DF804FB00BFCD
:1008B000140000201100002010E000E03C4B1A68FA
:1008C00022F080621A601A6822F080721A601A6838
:1008D00022F400221A601A6822F480221A609A68B0
:1008E00022F001029A609A6822F002029A609A68E5
:1008F00022F004029A609A6822F008029A609A68CC
:1009000022F080429A609A6822F000429A609A68C7
:1009100022F000629A609A6822F080529A609A6887
:1009200022F000529A609A6822F400129A609A6843
:1009300042F480029A609A6822F080729A609A6803
:1009400022F000729A609A6822F080629A609A6837
:1009500022F010029A609A6822F020029A609A6847
:1009600022F040029A609A6842F080029A609A6887
:1009700022F480629A609A6822F400629A609A680F
:1009800022F480529A609A6822F400529A609A681F
:1009900022F480429A609A6822F400429A601A68AF
:1009A00022F480321A601A6842F001021A6070471D
:1009B00000380240013804282BD8DFE800F0030B90
:1009C000131B2300134A0123106B03FA01F10143A7
:1009D000116370470F4A0123506B03FA01F1014381
:1009E000516370470B4A0123106C03FA01F1014374
:1009F00011647047074A0123506C03FA01F1014367
:100A000051647047034A0123106D03FA01F1014359
:100A1000116570470038024082B000224FF4F03375
:100A2000009200930C4B0099D9614FF46041D96159
:100A30000099D961DB690093084B01920193084B3F
:100A4000019ADA6140F61C02DA61019ADA61DB6927
:100A5000019302B0704700BF000002401C08010073
:100A600000040240012810B511D002D3022810D092
:100A700010BD094B1868490003248C4020EA04008B
:100A80001860186802FA01F101431960F0E7034B9E
:100A9000F0E7034BEEE700BF000002400004024015
:100AA00000080240012A02D0022A14D0704701280F
:100AB00009D002D302280CD07047124B58688A40E4
:100AC00002435A607047104B5A6888401043586080
:100AD00070470E4BF2E701280BD002D302280FD04B
:100AE00070470848436801228A4023EA02024260B4
:100AF0007047054A5368884023EA000050607047F9
:100B00000248EFE7000002400004024000080240F3
:100B1000012810B511D002D3022810D010BD094B06
:100B20009868490003248C4020EA04009860986883
:100B300002FA01F101439960F0E7034BF0E7034B40
:100B4000EEE700BF0000024000040240000802403F
:100B5000012810B511D002D3022810D010BD094BC6
:100B6000D868490003248C4020EA0400D860D86883
:100B700002FA01F10143D960F0E7034BF0E7034BC0
:100B8000EEE700BF000002400004024000080240FF
:100B9000012A02D0022A14D07047012809D002D3BA
:100BA00002280CD07047124B58698A4002435A61A0
:100BB0007047104B5A6988401043586170470E4B7C
:100BC000F2E701280BD002D302280FD07047084863
:100BD000436901228A4023EA020242617047054AC2
:100BE0005369884023EA0000506170470248EFE7EC
:100BF000000002400004024000080240012870B5D5
:100C000025D002D3022842D070BD072911D90F295F
:100C1000FAD82F4CA1F10800636A80000F218140AF
:100C200023EA01036362616A02FA00F0084360622A
:100C3000EAE7274C8E00236A0F21B14023EA010323
:100C40002362236A02FA06F119432162DCE70729CD
:100C500011D90F29D8D81F48A1F10803446A9B0075
:100C60000F21994024EA01014162416A02FA03F32B
:100C70000B434362C8E7174C8D00236A0F21A9403C
:100C800023EA01032362236A02FA05F1DCE707295C
:100C900010D90F29B8D8104B0839586A89000F2489
:100CA0008C4020EA04005862586A02FA01F10143BC
:100CB0005962A9E7084D8C002B6A0F21A14023EA55
:100CC00001032B622B6A02FA04F10B432B629BE7B0
:100CD00000000240000402400008024010B5044633
:100CE000827841780078FFF7BDFEE278617820785D
:100CF000FFF7D8FE227961782078FFF709FF627943
:100D000061782078FFF724FFA27961782078BDE828
:100D10001040FFF773BF000001280AD002D3022859
:100D20000ED07047084A536903F460431943516178
:100D30007047064A536903F01C0319434901F6E75B
:100D4000034B5B69704700BF000002400004024093
:100D50000008024008B5054B1B6803B19847044AD8
:100D6000536943F00103536108BD00BF1800002020
:100D7000003C014008B5054B5B6803B19847044A45
:100D8000536943F00203536108BD00BF18000020FF
:100D9000003C014008B5054B9B6803B19847044AE5
:100DA000536943F00403536108BD00BF18000020DD
:100DB000003C014008B5054BDB6803B19847044A85
:100DC000536943F00803536108BD00BF18000020B9
:100DD000003C014008B5054B1B6903B19847044A24
:100DE000536943F01003536108BD00BF1800002091
:100DF000003C01407047704708B508210420FFF708
:100E0000D9FD274B9A6842F001029A601A6D22F4CC
:100E100080321A651A6D22F480321A655A6822F0FF
:100E200080725A605A6822F000725A609A6822F4FE
:100E300000629A605A6822F080025A605A6822F072
:100E400020025A605A6822F080625A60DA6A22F4FC
:100E50008012DA62DA6A22F40012DA62DA6A22F4C2
:100E60008002DA62DA6A22F40002DA625A6822F454
:100E700080725A605A6822F400625A605A6822F4FA
:100E800000525A605A6822F480425A605A6822F42A
:100E900000425A609A6842F002029A6008BD00BFA0
:100EA00000200140094B5A6B22F01F021043586387
:100EB0009A6842F080429A601A689207FCD51A68D4
:100EC00022F002021A60D86C80B270470020014004
:100ED00008B5074B1B6803B19847064B1A6822F008
:100EE00002021A601A6822F004021A6008BD00BFEC
:100EF000740000200020014008B50348FFF7EEFE13
:100F0000BDE80840FFF778BF09000020014B1878C2
:100F1000FFF7C8BF0800002010B5022204460C21CC
:100F20000120FFF735FE02220D210120FFF730FEE0
:100F30000120FFF77DFC21460020FFF7EDFE012098
:100F4000FFF776FC012210460E21FFF721FE01205B
:100F5000FFF76EFC012002220E21FFF719FE01208F
:100F6000BDE81040FFF764BC70B596B0FFF752FCC7
:100F70004FF47A70FFF75CFC4F4A009202F58072E2
:100F8000029202F580720023049240F201220124B1
:100F900006930326CDF81B300421ADF81A20022257
:100FA00008930A930C938DF829200E93CDF82330E3
:100FB000CDF82B308DF823208DF82B20CDF8333051
:100FC000CDF83B308DF833208DF83B20ADF8043060
:100FD0008DF80630ADF80C308DF80E30ADF81430C9
:100FE0008DF816308DF839100625052168468DF8E4
:100FF00021408DF822408DF82A408DF831608DF81F
:1010000032408DF83A40109312931493CDF8433048
:10101000CDF84B30CDF8533007238DF841108DF8C3
:1010200043208DF84B208DF851308DF853208DF8EA
:1010300042408DF849508DF84A408DF85240FFF7F4
:101040004DFE02A8FFF74AFE04A8FFF747FE06A8D8
:10105000FFF744FE08A8FFF741FE0AA8FFF73EFE8F
:101060000CA8FFF73BFE0EA8FFF738FE10A8FFF70D
:1010700035FE12A8FFF732FE14A8FFF72FFE32202C
:10108000FFF7D6FB3820FFF747FF2046FFF7D0FBDE
:101090000C20FFF741FF2046FFF7CAFB2046FFF771
:1010A0003BFF3046FFF7C4FB2846FFF735FF2046DD
:1010B000FFF7BEFB16B070BD010C0102012210B596
:1010C0000C2104461046FFF763FD02220D2101208A
:1010D000FFF75EFD0120FFF7ABFB21460020FFF785
:1010E0001BFE0120FFF7A4FB012210460E21FFF793
:1010F0004FFD0120FFF79CFB012002220E21FFF78C
:1011000047FD0120BDE81040FFF792BB38B505460A
:101110000024E3B20134E85600B938BDC0B2FFF78D
:10112000CDFFF6E77FB501AE0023051E0193736086
:10113000338112DA2D20FFF7C1FF6D4200230A220E
:10114000DCB2013375B104A90C4495FBF2F102FB4A
:10115000115504F80C5C0D46F2E7EFD13020FFF793
:10116000ADFF2C46013C64B2230601D504B070BD2E
:10117000305D3030C0B2FFF7A1FF013CF4E7012839
:101180000AD80F2908D801280ABFA1F1400081F030
:101190008000C0B2FFF7C0BE704708B5FFF7EFFF91
:1011A0002020BDE80840FFF789BF704713B5FFF75F
:1011B00085FB01210846FFF7FDFB00210120FFF719
:1011C000F9FB00210420FFF7F5FBFFF725FCFFF7F3
:1011D00021FB4FF47A630022CDE90032072303207C
:1011E00002221946FFF7D4F8FFF70CFBFFF7BCFE0D
:1011F000FFF782FE1348FFF789FFFFF787FE032101
:1012000004460020FFF7BBFF2046FFF78BFF204678
:10121000FFF7B8F80120FFF70BFB03210020FFF7D1
:10122000BCFF04210020FFF7B8FF05210020FFF7D5
:10123000B4FF06210020FFF7B0FF0120FFF7F8FA06
:10124000DBE700BF64120008000802020000010092
:10125000090202000001000A0202000001000B0264
:0812600002000001446F3A0096
:10126800100000200000000008010003000000003A
:040000050800019559
:00000001FF
